:020000040000FA
:100000000C940B020C943C020C943C020C943C02A9
:100010000C943C020C943C020C943C020C943C0268
:100020000C943C020C943C020C943C020C943C0258
:100030000C943C020C943C020C943C020C943C0248
:100040000C943C020C943C020C943C020C943C0238
:100050000C943C020C943C020C943C020C943A0824
:100060000C943C020C94AE080C9484080C943C0252
:100070000C943C020C943C020C943C020C943C0208
:100080000C943C020C943C020C943C020C943C02F8
:100090000C943C020C943C020C943C020C94E4083A
:1000A0000C943C020C943C020C943C020C943C02D8
:1000B0000C943C020C943C020C943C020C943C02C8
:1000C0000C943C020C943C020C943C020C943C02B8
:1000D0000C943C020C943C020C943C020C943C02A8
:1000E0000C943C020C94AC020C94A4020C94951257
:1000F0000C94080A0C94A8020C94EB040C944F0383
:100100000C949A020C9420030C9494020C941B13EC
:100110000C9473020C94010D0C94FC040C94C40216
:100120000C94390E0C94C9110C94B2020C94C604B0
:100130000C9480030C948D020C94AE0F0C9421034C
:100140000C94BA020C949E020C94B6040C9489028E
:100150000C94DF0E0C945E110C9485020C94200418
:100160000C9491020C94A90F0C945E030C94B602AB
:100170000C946E020C94C0020C94E0040C942412B3
:100180000C9472030C9422030C94CA120C94B704BE
:100190000C94740D0C9432140C94B8030C94D90480
:1001A0000C94B80D000000000000000000000000EA
:1001B000000000000000000000000000010101013B
:1001C0000101010101010101020202020202020217
:1001D00003030303030304040404050505050506DE
:1001E0000606060707070808080909090A0A0A0B8C
:1001F0000B0B0C0C0D0D0D0E0E0F0F10101111121C
:1002000012131314141515161617181819191A1B8A
:100210001B1C1D1D1E1F1F202122222324252626D4
:100220002728292A2A2B2C2D2E2F303132333435F2
:10023000363738393A3B3C3D3E3F404142444546E3
:100240004748494B4C4D4E50515254555658595AA7
:100250005C5D5E606163646667696A6C6D6F707235
:10026000737577787A7C7D7F8182848688898B8D8F
:100270008F91929496989A9C9EA0A2A4A6A8AAACAC
:10028000AEB0B2B4B6B8BABCBFC1C3C5C7CACCCE93
:10029000D1D3D5D7DADCDFE1E3E6E8EBEDF0F2F538
:1002A000F7FAFCFF207769746820706978656C2024
:1002B0006F666673657420002069732061747461D1
:1002C0006368656420746F2070696E20004E656FEE
:1002D000706978656C206F66206C656E6774682045
:1002E0000043697263756C61722000000021002474
:1002F0000027002A002D0030003300010100000417
:100300000107010A0100000A0B02090C0D0E080783
:1003100003040100000000000000000000000000D5
:1003200000000000000000000000000000000000CD
:10033000001211100000000000000000000000008A
:1003400000000000000000000000000001010101A9
:10035000020202030304050607090B0D1014181D01
:10036000242B37404E5F748DACD1FF01021020204A
:1003700008081020401020408002010201080402F9
:10038000010102040810204080804020100804026F
:1003900001800402018040201008040201080402C8
:1003A00001010204081020408001020408102040CE
:1003B0008000002200250028002B002E0031003490
:1003C0000002010000050108010B010505050507F4
:1003D0000508080808020202020A0A0808040404C0
:1003E00004010101010101010103030303030303EC
:1003F00003040707070C0C0C0C0C0C0C0C0202027B
:100400000206060606060606060B0B0B0B0B0B0B6D
:100410000B00080A321411241FBECFEFD1E2DEBF59
:10042000CDBF00E00CBF12E0A0E0B2E0E4E5F2E3F3
:1004300000E00BBF02C007900D92A835B107D9F7B5
:1004400023E0A8E5B2E001C01D92AC3EB207E1F79F
:1004500012E0CAE0D2E000E006C021970109802F37
:10046000FE010E94DB17C930D10780E00807A9F719
:100470000E94010B0C9418190C940000282F30E0F6
:10048000F901EB5FFC4F9491F901E559FC4F449160
:1004900025533C4FF9012491222309F435C09923B7
:1004A00011F191509231F8F4E92FF0E08827E45AE5
:1004B000FD4F8F4F0C94DB178D0291026E02850267
:1004C0008902730294029A029E02A402A802AC025C
:1004D000B202B6027302BA02C002C4028091800066
:1004E0008F7780938000E22FF0E0EE0FFF1FEF5434
:1004F000FC4FA591B4918FB7F894EC91611148C06D
:1005000040954E234C938FBF0895809180008F7D3E
:10051000E8CF80918000877FE4CF84B58F7784BD5A
:10052000E2CF84B58F7DFBCF8091B0008F77809331
:10053000B000D9CF8091B0008F7DF9CF809190002D
:100540008F7780939000CFCF809190008F7DF9CFEF
:1005500080919000877FF5CF8091A0008F77809366
:10056000A000C1CF8091A0008F7DF9CF8091A00025
:10057000877FF5CF809120018F7780932001B3CFC3
:10058000809120018F7DF9CF80912001877FF5CF69
:100590004E2BB8CFCF93DF9390E0FC01E559FC4F91
:1005A000249185539C4FFC0184918823D1F090E0E5
:1005B000880F991FFC01E551FD4FA591B491FC01F5
:1005C000EF54FC4FC591D49161110EC09FB7F894C0
:1005D0008C91E22FE0958E238C932881E223E8838F
:1005E0009FBFDF91CF9108958FB7F894EC91E22BE4
:1005F000EC938FBFF6CF3FB7F8948091F5029091BE
:10060000F602A091F702B091F80226B5A89B05C0AA
:100610002F3F19F00196A11DB11D3FBFBA2FA92F81
:10062000982F8827BC01CD01620F711D811D911D7E
:1006300042E0660F771F881F991F4A95D1F70895EA
:1006400008950895AF92BF92CF92DF92EF92FF92FA
:100650000F931F93CF93DF936C017B018B01040FEA
:10066000151FEB015E01AE18BF08C017D10759F086
:100670006991D601ED91FC910190F081E02DC601C8
:100680001995892B79F7C501DF91CF911F910F91B2
:10069000FF90EF90DF90CF90BF90AF900895FC0156
:1006A000538D448D252F30E0842F90E0821B930BD7
:1006B000541710F0CF96089501970895FC01918D7D
:1006C000828D981761F0A28DAE0FBF2FB11D5D9680
:1006D0008C91928D9F5F9F73928F90E008958FEF22
:1006E0009FEF0895FC01918D828D981731F0828DD6
:1006F000E80FF11D858D90E008958FEF9FEF08952D
:10070000FC01918D228D892F90E0805C9F4F821B90
:1007100091098F739927089589EF92E00E948003D1
:1007200021E0892B09F420E0822F0895FC01A48D9B
:10073000A80FB92FB11DA35ABF4F2C91848D90E003
:1007400001968F739927848FA689B7892C93A089E6
:10075000B1898C91837080648C93938D848D981370
:1007600006C00288F389E02D80818F7D8083089503
:10077000EF92FF920F931F93CF93DF93EC0181E0F1
:10078000888F9B8D8C8D98131AC0E889F989808198
:1007900085FF15C09FB7F894EE89FF896083E889CB
:1007A000F98980818370806480839FBF81E090E0BD
:1007B000DF91CF911F910F91FF90EF900895F62E4A
:1007C0000B8D10E00F5F1F4F0F731127E02E8C8DE4
:1007D0008E110CC00FB607FCFACFE889F989808129
:1007E00085FFF5CFCE010E949603F1CFEB8DEC0F84
:1007F000FD2FF11DE35AFF4FF0829FB7F8940B8F46
:10080000EA89FB8980818062CFCF0F931F93CF93BA
:10081000DF938C01D0E0C0E0F801EC0FFD1F649184
:10082000662341F089EF92E00E94B803892B11F012
:100830002196F2CFCE01DF91CF911F910F910895B4
:10084000CF93DF93EC01888D8823B9F0AA89BB8907
:10085000E889F9898C9185FD03C0808186FD0DC0F2
:100860000FB607FCF7CF8C9185FFF2CF808185FF13
:10087000EDCFCE010E949603E9CFDF91CF9108958D
:1008800080E090E0892B29F00E948C0381110E9466
:10089000000080E090E0892B49F080E090E0892B17
:1008A00029F00E94000081110E94000080E090E089
:1008B000892B49F080E090E0892B29F00E9400000C
:1008C00081110E94000080E090E0892B49F080E0D7
:1008D00090E0892B29F00E94000081110C94000007
:1008E000089520919E02260F3327331F21323105B0
:1008F000ECF42091C202FC0190E080E0243069F029
:1009000082E00895A0919E022191AC0142585D4F72
:10091000A40FB52FB11D2C930196861798F38091E3
:100920009E02680F60939E0280E0089581E0089522
:100930001092C20281E08093C4021092C30261E06F
:1009400084E10E943E0261E085E10E943E02E9EB03
:10095000F0E080818E7F808380818D7F808388E43A
:100960008093B80085E48093BC0008950895E091D9
:10097000EF028091EE02E81730F4F0E0E85AFD4F04
:10098000808190E008958FEF9FEF08959091EF029E
:100990008091EE022FEF3FEF981748F4E92FF0E037
:1009A000E85AFD4F208130E09F5F9093EF02C9012C
:1009B00008958091EE029091EF02891B990B0895A2
:1009C000CF93DF93CB01EA01642F0E947104CE0123
:1009D000DF91CF910895CF93DF931F92CDB7DEB70C
:1009E000698361E0CE0101960E94710481E090E08C
:1009F0000F90DF91CF91089590E080E00895CF921D
:100A0000DF92EF92FF920F931F93CF93DF9300D06B
:100A100000D000D0CDB7DEB78C010E94FB02D80118
:100A20001F96CD90DD90ED90FC9052976C157D0552
:100A30008E059F0528F4F8016787708B818B928B58
:100A4000D8011F96CD90DD90ED90FC9052976C19D7
:100A50007D098E099F096C32714081059105E8F28C
:100A6000F894F801848195819A8389830184F285C1
:100A7000E02D7F012FEFE21AF20A80818F83D801E7
:100A80009C915396ED91FC91549755968C91992396
:100A900009F448C09081982B98879081809589238C
:100AA000898789858B8388E08C83588569854F8108
:100AB0003C812B8189819A81D701508347FD252F65
:100AC0003A952083262F39F0441F00C00000608330
:100AD000000000C0F2CF38E04D9160830000019724
:100AE00061F7D8015496FC93EE9353974F833C8360
:100AF0002B839A83898378940E94FB02F80167878D
:100B0000708B818B928B29960FB6F894DEBF0FBE47
:100B1000CDBFDF91CF911F910F91FF90EF90DF90AC
:100B2000CF9008959081982B988790818095892304
:100B3000898789858D8388E08E83588569854F8173
:100B40003E812D8189819A81D701508347FD252FD0
:100B500000C000C0208300C000C000C000C000C0B2
:100B600060830000262F3A9541F0441F000000C02A
:100B700000C000C000C000C0E8CF38E04D9100C008
:100B8000608300C0019709F7D8015496FC93EE9357
:100B900053974F833E832D83ACCF282F882329F092
:100BA00080EC289F90011124232FE22FEE0FEE0FEF
:100BB000F0E0EC55FE4F649170E090E080E027FF9C
:100BC00003C07F6F8F6F089526FF06C0982F872F71
:100BD000762F66278F6F0895CB01772766270895B4
:100BE000DC011B968D919C911C9701971C969C9300
:100BF0008E931B9797FF04C012961C9281E0089574
:100C0000892B49F41996ED91FC911A973097A1F32D
:100C1000CD011995F3CF80E00895CF93DF93EC01D8
:100C20000E94F005811109C02D853E859B89911197
:100C300007C02F5F3F4F3E872D87DF91CF910895EB
:100C400021503109F8CF2F923F924F925F926F92CD
:100C50007F928F929F92AF92BF92CF92DF92EF924C
:100C6000FF920F931F93CF93DF93FC0182819381B7
:100C70006817790708F081C04A01AA24BB24D82D3F
:100C8000C32ED42EE52EFF241C2D322E7688808D87
:100C9000918D680F791F769ED001779EB00D11243B
:100CA000818592858A0F9B1F048D64E0761216C0A1
:100CB000452E552466247724C42D0F3F51F0A02FD4
:100CC000B0E0A49DB001A59D700DB49D700D1124E0
:100CD000C72FA685A80FB92FB11DCC9363850F3FF1
:100CE00021F12584722F311610F424847C2DA689DD
:100CF000A43021F47C1710F426847C2F7D1708F48F
:100D0000262E809E4001112470E8870E911CD92D5B
:100D10000C9D60011124A0E8CA0ED11C1D2D029F5C
:100D2000D0011124A058BF4F3B2E680F792F711DA1
:100D3000DB01DC93A485A80FB92FB11D1C93A585F9
:100D4000A80FB92FB11D3C92678963FF16C000231D
:100D5000A1F0232B242B252B81F0D1110EC01111D2
:100D60000CC031100AC02689243011F4C11105C00D
:100D7000820D911D21E0FC012083DF91CF911F9115
:100D80000F91FF90EF90DF90CF90BF90AF909F902A
:100D90008F907F906F905F904F903F902F9008952D
:100DA0008F929F92AF92BF92EF92FF920F931F93F9
:100DB000CF93DF93DC011296ED91FC91E217F307DC
:100DC00088F079014A015B018C01D0E0C0E0EC16AB
:100DD000FD0641F0A5019401BE01C8010E94230651
:100DE0002196F5CFDF91CF911F910F91FF90EF905A
:100DF000BF90AF909F908F900895CF93DF934695CB
:100E000046954695E42FF0E0E55BFC4FE491F0E079
:100E1000282F30E02F5F3F4F2E9FE0012F9FD00DF6
:100E20003E9FD00D1124472F50E04F5F5F4F4E9FE4
:100E300090014F9F300D5E9F300D1124A62FB0E022
:100E40001196AE9FA001AF9F500DBE9F500D112473
:100E5000692F7727882799276F5F7F4F6E9FD00173
:100E60006F9FB00D7E9FB00D11246D2F70E090E04C
:100E700080E0CB01772766279B2B652B732BDF91B7
:100E8000CF910895FC0101900020E9F73197AF015F
:100E9000481B590BBC0189EF92E00C9422038F92FE
:100EA0009F92AF92BF920F931F93CF93DF93CDB7D3
:100EB000DEB7A1970FB6F894DEBF0FBECDBF19A263
:100EC000423008F44AE08E010F5D1F4F842E912CB2
:100ED000B12CA12CA50194010E941E15E62FB90189
:100EE000CA01EA30F4F4E05DD801EE938D01232BC2
:100EF000242B252B79F790E080E0109719F0CD0195
:100F00000E944207A1960FB6F894DEBF0FBECDBF78
:100F1000DF91CF911F910F91BF90AF909F908F90D5
:100F20000895E95CE1CFCF93DF9385ED8093BC001A
:100F300080917A0290917B02A0917C02B0917D0217
:100F40000796A11DB11D23E0B695A79597958795A6
:100F50002A95D1F72091BC0024FD03C01092C20253
:100F600036C040917A0250917B0260917C02709170
:100F70007D02452B462B472B69F30097A105B10550
:100F800041F02AE22A95F1F700C00197A109B109C1
:100F9000E1CF8091790291E0909378028823B9F0B3
:100FA000C091B800D091BA008091BC008A7B809338
:100FB000BC0060E084E10E943E0260E085E10E94A6
:100FC0003E020E949804D093BA00C093B800DF910B
:100FD000CF910895CF92DF92EF92FF920F931F93DC
:100FE000CF93DF93EC016A017B018E8910E000E072
:100FF000833049F5AB01960170E060E0CE010E94BC
:10100000230689859A85288D398DB901660F771F4A
:10101000620F731FFB0133962A813B81A901440FA4
:10102000551F420F531F43505109680F791F8E0FF0
:101030009F1FDF91CF911F910F91FF90EF90DF9055
:10104000CF900C9408198A819B810817190748F4DE
:10105000A7019601B801CE010E9423060F5F1F4F22
:10106000F2CFDF91CF911F910F91FF90EF90DF9022
:10107000CF9008951F920F920FB60F9211242F93C5
:101080003F938F939F93AF93BF938091F102909181
:10109000F202A091F302B091F4023091F00223E049
:1010A000230F2D3758F50196A11DB11D2093F00295
:1010B0008093F1029093F202A093F302B093F402B2
:1010C0008091F5029091F602A091F702B091F8029A
:1010D0000196A11DB11D8093F5029093F602A09395
:1010E000F702B093F802BF91AF919F918F913F911A
:1010F0002F910F900FBE0F901F90189526E8230F89
:101100000296A11DB11DD2CF1F920F920FB60F9262
:1011100011240BB60F922F933F934F935F936F93CE
:101120007F938F939F93AF93BF93EF93FF9389EF39
:1011300092E00E949603FF91EF91BF91AF919F9132
:101140008F917F916F915F914F913F912F910F9070
:101150000BBE0F900FBE0F901F9018951F920F920D
:101160000FB60F9211240BB60F922F938F939F936C
:10117000EF93FF93E0910903F0910A038081E091DE
:101180000F03F091100382FD1DC090818091120326
:101190008F5F8F7320911303821741F0E091120348
:1011A000F0E0E750FD4F958F80931203FF91EF9190
:1011B0009F918F912F910F900BBE0F900FBE0F90AC
:1011C0001F9018958081F2CF1F920F920FB60F9249
:1011D00011240BB60F922F933F934F935F936F930E
:1011E0007F938F939F93AF93BF93EF93FF938091E0
:1011F000B900887F803609F44DC008F040C08832BD
:1012000009F4A9C028F5803109F49DC0C8F48823E9
:1012100009F4FBC0883009F496C0FF91EF91BF91AB
:10122000AF919F918F917F916F915F914F913F917E
:101230002F910F900BBE0F900FBE0F901F9018951F
:10124000883109F488C0803241F78093C10214C00C
:10125000803409F49DC040F48033B9F38833E9F653
:101260008093C10285ECB0C0803509F485C0883513
:1012700009F496C0883489F60E949307CECF883946
:1012800009F48CC038F5883729F050F4883611F00D
:10129000803719F683E08093C2021092C00257C0D3
:1012A000883809F47BC0803919F0803809F0B5CF4F
:1012B0008091C002803208F071C0E091C00281E0EC
:1012C0008E0F8093C0028091BB00F0E0E056FD4F8E
:1012D00080833DC0803B39F0E0F4803A09F479C066
:1012E000883A09F09ACF84E08093C20210929F025C
:1012F00010929E02E091EA02F091EB021995809122
:101300009E0281110FC081E080939E0210927E02A6
:1013100009C0803C09F4A6CF883C09F4A3CF883BE0
:1013200009F07BCFE0919F0281E08E0F80939F02B6
:10133000F0E0E258FD4F80818093BB0090919F02C6
:1013400080919E0229C08091E7028093BB0085ECCA
:101350008093BC0062CF9091E6028091E5029817DD
:1013600058F5E091E60281E08E0F8093E602F0E00E
:10137000EB53FD4F8081E9CFE091E60281E08E0FD3
:101380008093E6028091BB00F0E0EB53FD4F808339
:101390009091E6028091E5029817C8F285E8D8CFCF
:1013A000E091E60281E08E0F8093E6028091BB001F
:1013B000F0E0EB53FD4F80838091C40281115CCF3C
:1013C00081E08093C30284EA8093BC001092C20241
:1013D00024CF85EC8093BC001092C2028091C002A1
:1013E000803230F4E091C002F0E0E056FD4F108210
:1013F0006091C00270E0E091E802F091E90280EAB9
:1014000092E019951092C00208CF1092C10234CF19
:101410001092FC021092FB0288EE93E0A0E0B0E094
:101420008093FD029093FE02A093FF02B09300030D
:101430002EE032E03093FA022093F90225EC30E0FE
:10144000309306032093050324EC30E03093080327
:101450002093070320EC30E030930A032093090324
:1014600021EC30E030930C0320930B0322EC30E0AE
:1014700030930E0320930D0326EC30E030931003DD
:1014800020930F031092120310921303109214036F
:1014900010921503109299031092980380939A0367
:1014A00090939B03A0939C03B0939D0380E292E0F2
:1014B00090939703809396031092CC031092D303DA
:1014C0001092DA031092DB031092DC031092DD031A
:1014D00081E08093D9038093D6031092D70392E0E2
:1014E0009093D8038093CB0387E290E09093D0034E
:1014F0008093CF030E94E3179093D5038093D40386
:10150000009709F469C027E2FC0111922A95E9F7D6
:101510008DE090E09093CE038093CD038AE090E03D
:101520009093D2038093D1038091CC03882341F020
:1015300061E08AE00E94CA0260E08AE00E943E0206
:10154000E5EDF3E0E491F0E0EE0FFF1FEF54FC4F08
:10155000859194919093DF038093DE03E5E7F3E0B8
:10156000E491E093E0039091D9038091D60398131E
:101570003CC083E08093E1031092E4031092E30304
:101580008BEC93E09093E6038093E5031092E203E3
:101590008FEF8093E70384E392E09093A503809319
:1015A000A4031092AE031092AD031092A603109202
:1015B000BC031092BB031092CA031092C903E091BE
:1015C000A203F091A303309799F484EA93E09093F7
:1015D000A3038093A20308951092D0031092CF0327
:1015E0001092CE031092CD0399CF84E0C3CFFC01BB
:1015F00085A196A10097D9F784EA93E096A385A3E5
:101600000895CF93DF9300D01F921F92CDB7DEB71E
:10161000789484B5826084BD84B5816084BD85B5CD
:10162000826085BD85B5816085BD80916E008160D9
:1016300080936E001092810080918100826080937F
:101640008100809181008160809381008091800081
:101650008160809380008091B10084608093B100AC
:101660008091B00081608093B00080919100826091
:10167000809391008091910081608093910080918E
:1016800090008160809390008091A100826080939F
:10169000A1008091A10081608093A1008091A000B1
:1016A00081608093A000809121018260809321015C
:1016B00080912101816080932101809120018160CE
:1016C0008093200180917A00846080937A008091D9
:1016D0007A00826080937A0080917A0081608093A2
:1016E0007A0080917A00806880937A001092C1001D
:1016F000E0910903F0910A0382E08083E091050301
:10170000F09106031082E0910703F091080380E155
:10171000808310921103E0910D03F0910E0386E097
:101720008083E0910B03F0910C03808180618083C2
:10173000E0910B03F0910C03808188608083E0913D
:101740000B03F0910C03808180688083E0910B0390
:10175000F0910C0380818F7D80831092EF021092B4
:10176000EE021092ED021092EC020E94980480E2C8
:1017700093E09093EB028093EA0281E293E09093EE
:10178000E9028093E80284E18093BA008091D1035A
:101790009091D20397FD08C061E00E94CA0260E008
:1017A0008091D1030E943E0281E08093CC0380911E
:1017B000E20387FF04C081EE92E00E9405048DECF5
:1017C00092E00E9405046091CD037091CE0390E0F9
:1017D00080E04AE00E944F0788EB92E00E940504F7
:1017E000C090D103D090D2030D2C000CEE08FF085E
:1017F0004AE0C701B601F7FE0DC06DE289EF92E045
:101800000E94B80366277727CB016C197D098E09E2
:101810009F094AE00E944F078091E3039091E403FF
:10182000892B69F084EA92E00E9405046091E30349
:101830007091E40390E080E04AE00E944F0784E367
:1018400092E00E9442074091CD035091CE03411592
:10185000510509F443C04D30510510F04DE050E002
:1018600070E060E0B0E0A0E030E020E08091CD03E7
:101870009091CE032817390748F58091D303882328
:1018800009F4B5C01FEF819FC00111249B83E09133
:10189000D9038091D4039091D503F091D603EF132F
:1018A000A9C08A0F9B1FE091D603E80FF92FF11D05
:1018B0001B811083E091D703E80FF92FF11D1082EF
:1018C000E091D803E80FF92FF11D10822F5F3F4FF1
:1018D00013966C5F7F4F4217530741F687E392E000
:1018E0000E9442074AE060E070E0CB010E944F078F
:1018F00084E392E00E9442078BE492E00E94420758
:1019000084E392E00E9442072091A2033091A30356
:101910003D832C83212C72E0372E4C815D81411553
:10192000510509F479C7DA0112968C911297882330
:1019300009F4C2C1ED91FC913697A081B181A40F49
:10194000B51FE091A403F091A50336970190F081B3
:10195000E02DEC55FC4F5A968D919C91228D338D44
:101960008217930709F0A8C18FB7F8944091F1024C
:101970005091F2026091F3027091F4028FBFEC81FA
:10198000FD8185819681A781B085481B590B6A0B23
:101990007B0B83819481B0E0A0E011E01B8384176E
:1019A0009507A607B70708F01B8284179507A607B7
:1019B000B70708F07FC1AC81BD811296EC91E15070
:1019C000ED3008F066C1F0E08827E651F34F8F4F05
:1019D0000C94DB17010D740DB80DA90FAE0F5E113D
:1019E000C911390E2412DF0E9512CA121B138FEF84
:1019F0008B834DCF860F971FE80FF92FF11D1082B3
:101A000052CF8C819D810E940D06811142C1AC8113
:101A1000BD81ED91FC9111973697008111810A0FDC
:101A20001B1F1D96BC91BA831982F8012281338154
:101A300050E040E060E070E081E090E00E94EC1453
:101A40006901F12CE12CD80112968D919C91E81638
:101A5000F90608F01EC18A8180958535F0F4982F2B
:101A6000990F990F282F291B215030E050E040E0BA
:101A7000A90133272227982F990F890F282BB70107
:101A8000C8010E942306E981FA81EC0DFD1DFA834D
:101A9000E983FFEFEF1AFF0AD6CF8A3A88F485551B
:101AA000282F220F280F30E050E040E0542F432F22
:101AB000322F2227982F990F990F891B8150DECF43
:101AC0008A5A982F990F990FB82FB91B9B2F9150B5
:101AD000282F220F820F282F30E050E040E0A9018C
:101AE00033272227392BCBCF8C819D810E940D0675
:101AF0008111CFC010E000E0AC81BD81ED91FC917F
:101B000011973697808191818A0F9B1FFC0122815A
:101B100033810217130708F0BCC053962C915397DA
:101B2000211110C01D962D913C9120173107A0F472
:101B3000AC81BD8154962C9124FD17C020E030E08B
:101B4000A90110C02230A1F7AC81BD811D962D9155
:101B50003C910217130760F3EC81FD8127853089E2
:101B600041895289B8010E9423060F5F1F4FC4CFDD
:101B70008C819D810E940D0681118BC0EC81FD81BD
:101B8000C784D088E188F288E589F0E0AC81BD8126
:101B90001D966D907C901E972F01461857085796FA
:101BA0008D909D90AD90BC905A974F2D55276627EC
:101BB0007727449EC001459E900D549E900D1124A0
:101BC0004B2D552766277727649E9001659E300D23
:101BD000749E300D1124820F931FBF010E94B31712
:101BE000062F10E030E020E0302F222711270027B9
:101BF000C49CA001C59C500D1124869CC001879CEB
:101C0000900D1124840F951FBF010E94B317062B5E
:101C1000E49CA001E59C500D1124A69CC001A79C4A
:101C2000900D1124840F951FBF010E94B317262B1E
:101C3000D49CC001D59C900D1124969CA001979C2A
:101C4000500D1124840F951FBF010E94B317D901B5
:101C5000C801962BAC01BD01AC81BD81ED91FC9119
:101C600011973697808191818A0F9B1F0E94EA0706
:101C700010C08C819D810E94F005882331F1EC8198
:101C8000FD81838D948DA58DB68D878B908FA18FCF
:101C9000B28F2FB7F8948091F1029091F202A09147
:101CA000F302B091F4022FBFEC81FD81858396830E
:101CB000A783B0871B81212AAC81BD8195960D90A9
:101CC000BC91A02DBD83AC8328CEAC81BD815F9635
:101CD000ED91FC919097CD0119956B017C0110E07D
:101CE00000E0AC81BD81ED91FC9111973697019098
:101CF000F081E02DEA0FFB1F8281938108171907FD
:101D000008F056C09689208D318D200F311F929F8B
:101D1000A001939F500D112421853285420F531F3E
:101D2000A385A40FB52FB11D8C90912CB12CA12CA3
:101D3000540199248824A485A40FB52FB11D8C913A
:101D4000A585A40FB52FB11D4C90512C712C612C81
:101D50009330D9F4982A84289528A628B728AC81EE
:101D6000BD815B964D915D916D917C915E9748151B
:101D700059056A057B0531F4A7019601B801CF0129
:101D80000E9423060F5F1F4FACCF9685490F511D50
:101D9000DA019C91B92A84289528A628B728282FEB
:101DA00030E0322F22272901330F66087708D3CF7E
:101DB000EC81FD81C38ED48EE58EF68E6ACFAC8128
:101DC000BD815796AD90BC9058971B968D919C9174
:101DD000019731F4A114B10419F0C5010E947F18D4
:101DE0008C819D810E94F005811153CF7501AC81DA
:101DF000BD81ED91FC91119736970190F081E02D16
:101E0000EA0FFB1F02811381C7018A199B09801702
:101E10009107F0F40E9494142B013C0180E293E0BE
:101E2000B8010E94B3176E5F7F4F9B0150E040E006
:101E3000C301B2010E94EC14F7018081681728F0F9
:101E40001082BFEFEB1AFB0AD2CF861B8083F9CF3B
:101E5000F8013297EA0DFB1D0150110902301105FE
:101E600070F08081229130E0820F932F911D820FBC
:101E7000931F63E070E00E94C7176283EDCF0E945A
:101E80009414683738F5EFE57E9F9001112440EAFD
:101E9000430FAC81BD81ED91FC9111973697019074
:101EA000F081E02DEA0FFB1F6281738176956795C3
:101EB000769567950E94B317F501E80FF91F5081D9
:101EC000852F90E09C01240F311D2817390744F518
:101ED0008FEF808365017601EA18FB08AC81BD8134
:101EE000ED91FC9111973697008111810A0F1B1F0C
:101EF000F80182819381E816F90608F0CACED6016E
:101F00008D916D01EC81FD81938991110CC00E942E
:101F1000CD059B01AC01B701C8010E942306DBCFB0
:101F2000450F4083D7CF0E94CD059B01AC01AC810A
:101F3000BD81ED91FC91119736970190F081E02DD4
:101F4000EA0FFB1F828193810197BC016E197F0903
:101F5000E3CF8C819D810E94F0059BCE8C819D8179
:101F60000E940D06811195CEEC81FD818789908DAF
:101F7000009709F450C0E389AC81BD814D915C911B
:101F800011971D966D917C911E9754963C91549794
:101F900055962C91E111DBC0FA013697A081B181F1
:101FA0004C815D81A40FB51F12964D915C91641711
:101FB000750759F462507109AC81BD811E967C93FE
:101FC0006E931D9753963C92019730FF1EC0AC81D3
:101FD000BD811D964D915C911E97240F352F311DAB
:101FE0000190F081E02DEA0FFB1F628173816F5F2A
:101FF0007F4F2617370749F4425051091E965C93CC
:102000004E931D9753963C920197AC81BD81589693
:102010009C938E935797EC81FD81638C748C10E0B8
:10202000CC24CA94DC2CAC81BD8155968C915597FB
:10203000E12EF12C181708F0B7C01F966D917D9115
:102040008D919C9152974D2D0E94FD064B015C0194
:1020500081149104A104B10409F4A6C0EC81FD81AE
:102060008389882319F0F194E194F108AC81BD8152
:102070001D966D917C911E976E197F09ED91FC91D3
:102080001197369780819181A50194018A0F9B1F3A
:102090000E942306EC81FD81848982FF1BC0019090
:1020A000F081E02D3697808191812C813D81820FD6
:1020B000931FD9011D966D917C9160957095FC01DF
:1020C00022813381620F731F6E0D7F1DA501940164
:1020D0000E942306AC81BD8154968C91549780FF59
:1020E00032C01D966D917C911E976E0D7F1DED91F6
:1020F000FC911197369780819181A50194018A0FF7
:102100009B1F0E942306EC81FD81848982FF1BC0F6
:102110000190F081E02D3697808191812C813D8165
:10212000820F931FD9011D966D917C9160957095DA
:10213000FC0122813381620F731F6E197F09A50193
:1021400094010E942306C618D7081F5F6CCF465023
:102150005109DA01ED91FC914C815D81E40FF51F8D
:10216000428153814617570758F4E1E0F0E0AC8113
:10217000BD811E96FC93EE931D9753961C9201977A
:1021800030FF43CF30E0AC81BD811D964D915C9115
:10219000421B530B4E3F5F4F09F037CFEC81FD815F
:1021A00036872587138A30CFAC81BD8154962C9118
:1021B00054972470ED91FC9111973697808191810D
:1021C0008A0F9B1F1D966D917C911E9753963C9193
:1021D000311142C02223C1F1FC01228133811695C5
:1021E000FB01E11BF109A9014150510956954795A1
:1021F0004E175F0750F4F901F695E795AB014E19BC
:102200005F094E175F0708F444CD60957095620F23
:10221000731F6E0D7F1D20E030E0A9010E94230690
:10222000AC81BD811D966D917C911E976E197F09C1
:10223000ED91FC91119736978081918120E030E0FB
:10224000A9018A0F9B1F05C06E197F0920E030E0AD
:10225000A9010E9423061DCD222369F1FC014281C0
:10226000538116959B01210F311DFA01F695E795D3
:102270002E173F0760F49A012150310936952795B2
:10228000FB01EE0DFF1D2E173F0708F402CD6095F0
:102290007095640F751F6E197F0920E030E0A90169
:1022A0000E942306AC81BD811D966D917C911E9785
:1022B0006E0D7F1DBDCF6E0D7F1DC8CF8C819D81A2
:1022C0000E94F0058111E5CCEC81FD812389858593
:1022D0009685211141C00196968785872589368983
:1022E000230F3327331F8217930710F016861586A6
:1022F000AC81BD811D96FC9010E000E0AC81BD81F9
:10230000ED91FC9111973697808191818A0F9B1FE7
:10231000FC01228133810217130708F0BACC5596CD
:102320002C915597F21660F51F962D913D914D9188
:102330005C915297B8010E942306F394EC81FD81D1
:1023400085899689890F9927991FF81619060CF027
:10235000F12C0F5F1F4FD2CF0197AC81BD811E962C
:102360009C938E931D97019619F6EC81FD818589CA
:102370009689890F9927991F019796878587B8CFE6
:10238000AC81BD8157962D913D914D915C915A97AD
:10239000D1CF8C819D810E94F00581117ACCAC81D6
:1023A000BD811D962D913C911E97215031091E969D
:1023B0003C932E931D978D919C9111970697FC014C
:1023C00020FF31C021303105E9F454962C91549707
:1023D00025FF18C0808191818A0F9B1FDC01129616
:1023E0002D913C9140E050E0BA010E94D006AC81B2
:1023F000BD815B968D919C915C9714969C938E9376
:10240000139747CC808191812C813D81820F931F4E
:10241000DC0112962D913C91EC81FD814789508D14
:10242000618D728DE2CF808191812C813D81820FFF
:10243000931FDC0112962D913C91EC81FD81478523
:10244000508961897289D1CFC12CD12C7601C39476
:102450008C819D810E94F00581111BCCEC81FD8156
:10246000858596852389211138C0883F910568F1BB
:10247000338AEC81FD81838594850197B9F5848940
:1024800084FD34C00190F081E02D36970190F081F9
:10249000E02D2C813D81E20FF31F4689208D318D87
:1024A000429FC001439F900D1124218532854481B4
:1024B000558170E060E0820F931F0E941119C114D2
:1024C000D104E104F10421F2E4CB4096AC81BD815A
:1024D0001E969C938E931D97CCCF8930910520F446
:1024E000EC81FD81138AC5CF4097F0CFAC81BD81CF
:1024F0001F966D917D918D919C9152971D964C9157
:102500000E94FD066B017C01C114D104E104F104B9
:1025100009F49ECFAC81BD81ED91FC911197369766
:1025200080819181B701A6019FCB8C819D810E9402
:102530000D068111AECB10E000E0AC81BD81ED91C4
:10254000FC9111973697808191818A0F9B1FFC0126
:10255000228133810217130708F09BCB1D962D9122
:102560003C911E970217130761F41F962D913D9120
:102570004D915C915297B8010E9423060F5F1F4F47
:10258000DCCFAC81BD8157962D913D914D915C91F1
:102590005A97F1CFEC81FD81658576850190F081B8
:1025A000E02D36978081918120E030E0A901AC8157
:1025B000BD818A0F9B1F0E9423068C819D810E94F2
:1025C0000D06811166CBEC81FD8183896585768559
:1025D00081112AC00190F081E02D36970190F081A1
:1025E000E02D2C813D81E20FF31F828193810197C1
:1025F0006817790719F4D90153963C92AC81BD81D3
:102600001B968D919C911C97019709F442CB1F96C4
:102610002D913D914D915C915297ED91FC911197C7
:102620003697808191810DCE6115710539F7EC8166
:10263000FD81138AE3CFEC81FD816585768501906C
:10264000F081E02D36978081918120E030E0A90172
:10265000AC81BD818A0F9B1F0E9423068C819D81C6
:102660000E940D06811115CBEC81FD810585168533
:1026700022E030E034872387C38CD48CE58CF68C41
:10268000B80190E080E00E945D169B01AC01C7019B
:10269000B6010E944F154B015C010E945E172B0191
:1026A0003C01AC81BD8153968C915397811150C0F0
:1026B00055968C91559780171106C9F553963C9203
:1026C0005397C80101961E969C938E931D97B8014F
:1026D000012E000C880B990B0E945F169B01AC0128
:1026E000C701B6010E944F150E945E179B01AC0105
:1026F0000E9450156B017C01AC81BD8157966D9194
:102700007C9190E080E00E945D16A70196010E94F6
:10271000EB160E942E16EC81FD817483638327855E
:10272000308941895289B8017727DF0176CF20E0CF
:1027300030E040E85FE3C501B4010E944F150E94FC
:102740005E179B01AC01C301B2010E944F15D2CFAD
:102750000115110569F020E030E040E85FE3C501B4
:10276000B4010E9450150E945E17A3019201EDCFA3
:10277000EC81FD81138A848964E670E0681B71092D
:10278000072E000C880B990B0E945F164B015C0111
:1027900020E030E040E85FE3C701B6010E94501539
:1027A0009B01AC01C501B4010E94EB1620E030E0B2
:1027B00048EC52E40E94BC1520E030E040E85FE3C2
:1027C0000E944F156B017C01AC81BD815B96CD925F
:1027D000DD92ED92FC925E970E942E16EC81FD81B7
:1027E000658B611104C021E030E034872387C70185
:1027F000B6010E945E174B015C0120E030E040E82A
:102800005FE3C701B6010E944F150E945E179B014E
:10281000AC01C501B40199CF2220D9F0E091A40305
:10282000F091A50336970190F081E02DEC55FC4F17
:10283000028CF38DE02D878980FF0EC081FD09C0D9
:10284000828D938DFC0121853285232B11F00E940E
:10285000FF040E94400458C881859285892BC9F3E2
:10286000CF01F5CF84E392E09093A5038093A40376
:102870008091D4039091D5030E947F188091D10359
:102880009091D20397FD03C060E00C94CA020895B2
:102890008F929F92AF92BF92CF92DF92EF92FF9270
:1028A000CF93DF93EC01688179818A819B816115E7
:1028B00071058105910521F464E279ED8BE597E0DE
:1028C0002DE133EF41E050E00E94EC1449015A0140
:1028D0009B01AC01A7EAB1E40E940B156B017C01DE
:1028E000ACEEB4EFA50194010E941915C60ED71ED7
:1028F000E81EF91EF7FE06C081E0C81AD108E108FB
:1029000080E8F80AC882D982EA82FB82C701B60150
:102910009F77DF91CF91FF90EF90DF90CF90BF90A6
:10292000AF909F908F9008958F929F92AF92BF9299
:10293000CF92DF92EF92FF926091000270910102BC
:102940008091020290910302611571058105910544
:1029500021F464E279ED8BE597E02DE133EF41E07E
:1029600050E00E94EC1449015A019B01AC01A7EA16
:10297000B1E40E940B156B017C01ACEEB4EFA50134
:1029800094010E941915C60ED71EE81EF91EF7FE07
:1029900006C081E0C81AD108E10880E8F80AC092B0
:1029A0000002D0920102E0920202F0920302C701FB
:1029B000B6019F77FF90EF90DF90CF90BF90AF90E0
:1029C0009F908F900895609300027093010280930E
:1029D0000202909303020895052E97FB1EF40094C3
:1029E0000E94031557FD07D00E941E1507FC03D057
:1029F0004EF40C94031550954095309521953F4F1A
:102A00004F4F5F4F089590958095709561957F4FDA
:102A10008F4F9F4F08950E944015A59F900DB49F22
:102A2000900DA49F800D911D11240895B7FF0C9463
:102A30000B150E940B15821B930B0895A1E21A2E11
:102A4000AA1BBB1BFD010DC0AA1FBB1FEE1FFF1F52
:102A5000A217B307E407F50720F0A21BB30BE40BA2
:102A6000F50B661F771F881F991F1A9469F76095E9
:102A70007095809590959B01AC01BD01CF010895A3
:102A8000A29FB001B39FC001A39F700D811D1124AF
:102A9000911DB29F700D811D1124911D08955058F4
:102AA000BB27AA270E9467150C94B1160E94A31693
:102AB00038F00E94AA1620F039F49F3F19F426F44A
:102AC0000C94A0160EF4E095E7FB0C949A16E92FEF
:102AD0000E94C21658F3BA17620773078407950756
:102AE00020F079F4A6F50C94E4160EF4E0950B2E84
:102AF000BA2FA02D0B01B90190010C01CA01A00150
:102B00001124FF27591B99F0593F50F4503E68F1AA
:102B10001A16F040A22F232F342F4427585FF3CFEB
:102B2000469537952795A795F0405395C9F77EF4BC
:102B30001F16BA0B620B730B840BBAF09150A1F005
:102B4000FF0FBB1F661F771F881FC2F70EC0BA0F8B
:102B5000621F731F841F48F4879577956795B79513
:102B6000F7959E3F08F0B0CF9395880F08F099270E
:102B7000EE0F9795879508950E94D0150C94B11685
:102B80000E94AA1658F00E94A31640F029F45F3F55
:102B900029F00C949A1651110C94E5160C94A01679
:102BA0000E94C21668F39923B1F3552391F3951B44
:102BB000550BBB27AA2762177307840738F09F5F5E
:102BC0005F4F220F331F441FAA1FA9F335D00E2ECB
:102BD0003AF0E0E832D091505040E695001CCAF738
:102BE0002BD0FE2F29D0660F771F881FBB1F2617FB
:102BF00037074807AB07B0E809F0BB0B802DBF01D2
:102C0000FF2793585F4F3AF09E3F510578F00C94A0
:102C10009A160C94E5165F3FE4F3983ED4F386953C
:102C200077956795B795F7959F5FC9F7880F911DC1
:102C30009695879597F90895E1E0660F771F881FAD
:102C4000BB1F621773078407BA0720F0621B730B60
:102C5000840BBA0BEE1F88F7E09508950E94CA1600
:102C600088F09F5798F0B92F9927B751B0F0E1F04D
:102C7000660F771F881F991F1AF0BA95C9F714C0FD
:102C8000B13091F00E94E416B1E008950C94E4167E
:102C9000672F782F8827B85F39F0B93FCCF3869536
:102CA00077956795B395D9F73EF490958095709593
:102CB00061957F4F8F4F9F4F0895E89409C097FB10
:102CC0003EF490958095709561957F4F8F4F9F4F03
:102CD0009923A9F0F92F96E9BB279395F695879547
:102CE00077956795B795F111F8CFFAF4BB0F11F40A
:102CF00060FF1BC06F5F7F4F8F4F9F4F16C08823B1
:102D000011F096E911C0772321F09EE8872F762FE6
:102D100005C0662371F096E8862F70E060E02AF027
:102D20009A95660F771F881FDAF7880F9695879513
:102D300097F9089597F99F6780E870E060E008953B
:102D40009FEF80EC089500240A94161617061806C3
:102D50000906089500240A9412161306140605069F
:102D60000895092E0394000C11F4882352F0BB0F30
:102D700040F4BF2B11F460FF04C06F5F7F4F8F4F93
:102D80009F4F089557FD9058440F551F59F05F3FCE
:102D900071F04795880F97FB991F61F09F3F79F07D
:102DA00087950895121613061406551FF2CF4695FF
:102DB000F1DF08C0161617061806991FF1CF869581
:102DC0007105610508940895E894BB276627772765
:102DD000CB0197F908950E94FE160C94B1160E943B
:102DE000A31638F00E94AA1620F0952311F00C9437
:102DF0009A160C94A01611240C94E5160E94C21683
:102E000070F3959FC1F3950F50E0551F629FF0013D
:102E1000729FBB27F00DB11D639FAA27F00DB11D56
:102E2000AA1F649F6627B00DA11D661F829F2227DF
:102E3000B00DA11D621F739FB00DA11D621F839F66
:102E4000A00D611D221F749F3327A00D611D231F3C
:102E5000849F600D211D822F762F6A2F11249F578A
:102E600050409AF0F1F088234AF0EE0FFF1FBB1F8D
:102E7000661F771F881F91505040A9F79E3F51054C
:102E800080F00C949A160C94E5165F3FE4F3983E9C
:102E9000D4F3869577956795B795F795E7959F5FF6
:102EA000C1F7FE2B880F911D9695879597F9089588
:102EB00019F416F40C94A0160C949E170E94CA16CE
:102EC000B8F39923C9F3B6F39F57550B87FF0E94B8
:102ED000AC170024A0E640EA9001805856959795DB
:102EE00028F4805C660F771F881F20F026173707AD
:102EF000480730F4621B730B840B202931294A2BBD
:102F0000A69517940794202531254A2758F7660F70
:102F1000771F881F20F026173707480730F4620B09
:102F2000730B840B200D311D411DA09581F7B90154
:102F3000842F9158880F9695879508959F3F31F07B
:102F4000915020F4879577956795B795880F911DD7
:102F50009695879597F9089591505040660F771F81
:102F6000881FD2F70895AA1BBB1B51E107C0AA1FF7
:102F7000BB1FA617B70710F0A61BB70B881F991F1A
:102F80005A95A9F780959095BC01CD01089597FBBE
:102F9000072E16F4009407D077FD09D00E94B317CE
:102FA00007FC05D03EF4909581959F4F089570954C
:102FB00061957F4F0895EE0FFF1F881F8BBF07900D
:102FC000F691E02D19940F931F93CF93DF938230E6
:102FD000910510F482E090E0E091EA03F091EB03B8
:102FE00030E020E0B0E0A0E0309799F42115310501
:102FF00009F44AC0281B390B24303105D8F58A81E1
:103000009B816115710589F1FB0193838283FE0128
:1030100011C0408151810281138148175907E0F0A6
:103020004817590799F4109761F012960C9312976C
:1030300013961C933296CF01DF91CF911F910F9180
:1030400008950093EA031093EB03F4CF21153105A3
:1030500051F04217530738F0A901DB019A01BD0175
:10306000DF01F801C1CFEF01F9CF9093EB0380931B
:10307000EA03CDCFFE01E20FF31F8193919322501B
:10308000310939832883D7CF2091E8033091E903B0
:10309000232B41F420910602309107023093E9037B
:1030A0002093E80320910402309105022115310597
:1030B00041F42DB73EB74091080250910902241BFC
:1030C000350BE091E803F091E903E217F307A0F470
:1030D0002E1B3F0B2817390778F0AC014E5F5F4F6E
:1030E0002417350748F04E0F5F1F5093E9034093B4
:1030F000E803819391939FCFF0E0E0E09CCFCF93E2
:10310000DF930097E9F0FC01329713821282A091BD
:10311000EA03B091EB03ED0130E020E01097A1F459
:1031200020813181820F931F2091E8033091E903C0
:103130002817390709F061C0F093E903E093E80329
:10314000DF91CF910895EA01CE17DF07E8F54A81B4
:103150005B819E0141155105B1F7E901FB83EA83CB
:1031600049915991C40FD51FEC17FD0761F4808177
:1031700091810296840F951FE9019983888382814A
:1031800093819B838A83F0E0E0E012968D919C917D
:1031900013970097B9F52D913C911197CD010296A7
:1031A000820F931F2091E8033091E9032817390714
:1031B00039F6309751F51092EB031092EA03B09371
:1031C000E903A093E803BCCFD383C283408151813C
:1031D000840F951FC817D90761F44E5F5F4F888130
:1031E0009981480F591F518340838A819B81938322
:1031F00082832115310509F0B0CFF093EB03E09302
:10320000EA039ECFFD01DC01C0CF13821282D7CF2B
:10321000FB01DC0102C001900D9241505040D8F7F3
:103220000895DC0101C06D9341505040E0F70895CE
:1032300012E0CAE0D2E000E006C0802FFE010E944A
:10324000DB172196011DCB30D10780E00807A9F7D5
:10325000F894FFCF010000000000EC0380000000A4
:103260000000B80322034F03200480035E037203AF
:1032700000000000EB04E004FC04B604D904C6041A
:10328000B7042700000000000D0A003E3E205365F1
:1032900074204C4544206D6F646520746F20003E9F
:0C32A0003E20537461727465642E0000BF
:020000040003F7
:10E000000D9489F10D94B2F10D94B2F10D94B2F129
:10E010000D94B2F10D94B2F10D94B2F10D94B2F1F0
:10E020000D94B2F10D94B2F10D94B2F10D94B2F1E0
:10E030000D94B2F10D94B2F10D94B2F10D94B2F1D0
:10E040000D94B2F10D94B2F10D94B2F10D94B2F1C0
:10E050000D94B2F10D94B2F10D94B2F10D94B2F1B0
:10E060000D94B2F10D94B2F10D94B2F10D94B2F1A0
:10E070000D94B2F10D94B2F10D94B2F10D94B2F190
:10E080000D94B2F10D94B2F10D94B2F10D94B2F180
:10E090000D94B2F10D94B2F10D94B2F10D94B2F170
:10E0A0000D94B2F10D94B2F10D94B2F10D94B2F160
:10E0B0000D94B2F10D94B2F10D94B2F10D94B2F150
:10E0C0000D94B2F10D94B2F10D94B2F10D94B2F140
:10E0D0000D94B2F10D94B2F10D94B2F10D94B2F130
:10E0E0000D94B2F141546D656761323536300041AF
:10E0F000726475696E6F206578706C6F72657220DE
:10E1000073746B3530305632206279204D4C530099
:10E11000426F6F746C6F616465723E004875683F52
:10E1200000436F6D70696C6564206F6E203D200048
:10E130004350552054797065202020203D20005FF9
:10E140005F4156525F415243485F5F3D2000415658
:10E1500052204C696243205665723D20004743437C
:10E160002056657273696F6E203D20004350552024
:10E1700049442020202020203D20004C6F7720663D
:10E18000757365202020203D20004869676820665F
:10E190007573652020203D200045787420667573D6
:10E1A00065202020203D20004C6F636B2066757336
:10E1B000652020203D20004D617220203720323024
:10E1C000313300312E362E3800342E332E350056A2
:10E1D00023202020414444522020206F7020636F70
:10E1E00064652020202020696E73747275637469E1
:10E1F0006F6E2061646472202020496E74657272B3
:10E20000757074006E6F20766563746F7200726A49
:10E210006D702020006A6D70200057686174207056
:10E220006F72743A00506F7274206E6F7420737541
:10E2300070706F72746564004D7573742062652030
:10E2400061206C6574746572002000577269747483
:10E25000696E672045450052656164696E672045B7
:10E26000450045452065727220636E743D00504F35
:10E27000525400303D5A65726F2061646472003FF1
:10E280003D43505520737461747300403D454550C3
:10E29000524F4D207465737400423D426C696E6B41
:10E2A000204C454400453D44756D70204545505215
:10E2B0004F4D00463D44756D7020464C415348001B
:10E2C000483D48656C70004C3D4C69737420492F83
:10E2D0004F20506F72747300513D51756974005234
:10E2E0003D44756D702052414D00563D73686F7707
:10E2F00020696E7465727275707420566563746FF0
:10E30000727300593D506F727420626C696E6B00BD
:10E310002A0011241FBECFEFD1E2DEBFCDBF01E046
:10E320000CBF12E0A0E0B2E0EEE1FDEF03E00BBFB6
:10E3300002C007900D92A030B107D9F712E0A0E01B
:10E34000B2E001C01D92AE30B107E1F70F9460F367
:10E350000D948DFE01E20EBF0FEF0DBF11241FBE05
:10E360000D9460F30D9400F020E030E040ED57E0B4
:10E3700005C0FA013197F1F72F5F3F4F2817390792
:10E38000C0F308959C01260F311DC901A0E0B0E043
:10E390002F5F3F4FABBFFC018791882361F08093D3
:10E3A000C6008091C00086FFFCCF8091C0008064D1
:10E3B0008093C000EACF08958DE08093C6008091DD
:10E3C000C00086FFFCCF8091C00080648093C000B5
:10E3D0008AE08093C6008091C00086FFFCCF8091C8
:10E3E000C00080648093C00008950F94C2F10F9420
:10E3F000DCF10895FC019081992359F09093C600B7
:10E400008091C00086FFFCCF8091C0008064809323
:10E41000C0003196992379F70895282F982F929567
:10E420009F70892F805D8A3308F0895F8093C600D2
:10E430008091C00086FFFCCF8091C00080648093F3
:10E44000C000822F8F70982F905D9A3308F0995FEB
:10E450009093C6008091C00086FFFCCF8091C000E1
:10E4600080648093C00008959C01FB01853691056E
:10E470001CF46330710594F0C90164E670E00F94F8
:10E480002EFE605D7F4F6093C6008091C00086FFC6
:10E49000FCCF8091C00080648093C0002B30310598
:10E4A00014F43297B4F0C90164E670E00F942EFEC4
:10E4B0006AE070E00F942EFE605D7F4F6093C600AF
:10E4C0008091C00086FFFCCF8091C0008064809363
:10E4D000C000C9016AE070E00F942EFEC0968093E0
:10E4E000C6008091C00086FFFCCF8091C000806490
:10E4F0008093C00008951F93182F8EE692EE60E07F
:10E500000F94C2F11093C6008091C00086FFFCCF2B
:10E510008091C00080648093C0000F94DCF11F9153
:10E5200008952F923F924F925F926F927F928F92B7
:10E530009F92AF92BF92CF92DF92EF92FF920F9392
:10E540001F93DF93CF93CDB7DEB762970FB6F894E2
:10E55000DEBF0FBECDBF382E622ECA01DB015C01CB
:10E560006D01772420E2222E2E010894411C511CBB
:10E570008BC081E0A81680E0B80681E0C80680E084
:10E58000D80628F0C601AA27BB270F940DF2BB2797
:10E59000AD2D9C2D8B2D0F940DF28A2D0F940DF225
:10E5A0002092C6008091C00086FFFCCF8091C00001
:10E5B00080648093C0009DE29093C6008091C0006B
:10E5C00086FFFCCF8091C00080648093C0002092C1
:10E5D000C6008091C00086FFFCCF8091C00080649F
:10E5E0008093C00019828601750188249924A1E0D6
:10E5F0003A1651F03A1620F0B2E03B1661F409C029
:10E600000BBFF701779007C0C7010F9477FE782EF4
:10E6100002C0F7017080872D0F940DF22092C60082
:10E620008091C00086FFFCCF8091C0008064809301
:10E63000C000872D8052F401EF70F0708F3520F408
:10E64000E40DF51D708204C0E40DF51D8EE280839B
:10E650000894E11CF11C011D111D0894811C911CE2
:10E6600090E18916910409F0C2CF80E190E0A0E02A
:10E67000B0E0A80EB91ECA1EDB1E198AC2010F9493
:10E68000FAF10F94DCF16A94662009F072CF629679
:10E690000FB6F894DEBF0FBECDBFCF91DF911F91B3
:10E6A0000F91FF90EF90DF90CF90BF90AF909F9031
:10E6B0008F907F906F905F904F903F902F90089534
:10E6C0002F923F924F925F926F927F928F929F9282
:10E6D000AF92BF92CF92DF92EF92FF920F931F9370
:10E6E000DF93CF93CDB7DEB7CD53D1400FB6F894BB
:10E6F000DEBF0FBECDBF01E20EBF0FEF0DBF94B75F
:10E70000F894A89514BE80916000886180936000A1
:10E7100010926000789493FF05C0E0910002F091A0
:10E7200001021995279A2F9A8091C00082608093E8
:10E73000C00080E18093C40088E18093C1000000A4
:10E74000EE24FF24870144E0A42EB12CCC24DD2448
:10E7500024C0C5010197F1F70894E11CF11C011DCB
:10E76000111D21E2E2162EE4F20620E0020720E06D
:10E77000120718F031E0C32ED12CC801B70127ECE5
:10E780003BE140E050E00F9441FE611571058105C9
:10E79000910519F485B1805885B98091C00087FD35
:10E7A00003C0C114D104A9F2A6014F5F5F4FC25E3E
:10E7B000DE4F59834883CE51D140C25EDE4F8881FF
:10E7C0009981CE51D140019711F00D9410FEC05D9A
:10E7D000DE4F19821882C053D14060E0C15DDE4F28
:10E7E0001882CF52D14088249924C35DDE4F19820C
:10E7F0001882CD52D140C05EDE4F188219821A8233
:10E800001B82C052D140CE5CDE4F188219821A8220
:10E810001B82C253D140EE24FF2487010BBFF701B6
:10E8200007911691C45CDE4F19830883CC53D14005
:10E830000D940BFEC25EDE4F28813981CE51D1404E
:10E840002130310509F52091C600C25EDE4F1982E4
:10E850001882CE51D14022C02F5F3F4F4F4F5F4FA4
:10E86000213082E138078AE7480780E0580780F0C6
:10E87000C45CDE4FE881F981CC53D140EF5FFF4F9C
:10E8800019F0EE27FF27099420E030E040E050E047
:10E890008091C00087FFE0CF2091C600C35DDE4FAE
:10E8A00048815981CD52D1404F5F5F4FC35DDE4FEC
:10E8B00059834883CD52D140213209F063C64A3092
:10E8C000510508F05FC60894811C911C53E0851621
:10E8D000910409F059C600E010E018C081E280936D
:10E8E000C6008091C00086FFFCCF8091C00080648C
:10E8F0008093C0002F5F3F4F2931310579F70F9486
:10E90000DCF10F5F1F4F0530110519F020E030E0FA
:10E91000E5CF10920A0210920B0210920C02109294
:10E920000D02109206021092070210920802109235
:10E930000902109202021092030210920402109235
:10E9400005028FEE90EE60E00F94F5F180E191EE1C
:10E9500060E00F94C2F18091C00087FFFCCF9091DE
:10E96000C600903608F09F759032B8F09093C600BC
:10E970008091C00086FFFCCF8091C00080648093AE
:10E98000C000A0E2A093C6008091C00086FFFCCF2B
:10E990008091C00080648093C000983409F4D7C18E
:10E9A0009934B8F4923409F459C1933458F490333B
:10E9B00019F1903308F4E3C59F33A1F1903409F0C5
:10E9C000DEC5BDC0953409F470C1963409F0D7C5D1
:10E9D00098C1923509F42BC2933538F49C3409F46C
:10E9E000F5C1913509F0CBC518C2963509F445C279
:10E9F000993509F0C4C567C483E792EE62E00F94CD
:10EA0000F5F110920602109207021092080210927D
:10EA1000090210920A0210920B0210920C0210923C
:10EA20000D0213C18FE792EE62E00F94F5F18FEEC5
:10EA300090EE60E00F94F5F181E291EE60E00F94CA
:10EA4000C2F187EB91EE60E00F94F5F180E391EE77
:10EA500060E00F94C2F184EE90EE60E00F94F5F167
:10EA60008FE391EE60E00F94C2F186E090E061E008
:10EA700070E00F9434F20F94DCF18DE591EE60E0DC
:10EA80000F94C2F189EC91EE60E00F94F5F18EE401
:10EA900091EE60E00F94C2F183EC91EE60E00F9490
:10EAA000F5F18CE691EE60E00F94C2F18EE10F94E7
:10EAB0000DF288E90F940DF281E00F940DF20F949E
:10EAC000DCF18BE791EE60E00F94C2F119E0E0E039
:10EAD000F0E010935700E4918E2F0F940DF20F94F5
:10EAE000DCF18AE891EE60E00F94C2F1E3E0F0E03F
:10EAF00010935700E4918E2F0F940DF20F94DCF1D8
:10EB000089E991EE60E00F94C2F1E2E0F0E0109349
:10EB10005700E4918E2F0F940DF20F94DCF188EAE8
:10EB200091EE60E00F94C2F1E1E0F0E01093570045
:10EB30001491812F0F940DF20F94DCF107CF8BE825
:10EB400092EE62E00F94F5F18BE492EE60E00F94A8
:10EB5000F5F10F94DCF100E010E019C0C8016F2D51
:10EB60000F947FFEFF2031F489E492EE60E00F9471
:10EB7000C2F10BC0F092C6008091C00086FFFCCFAE
:10EB80008091C00080648093C0000F5F1F4FC80158
:10EB900081519F41A0E0B0E0ABBFFC01F790BAE229
:10EBA000FB1621F0E2E000301E07C1F60F94DCF105
:10EBB0000F94DCF187E592EE60E00F94F5F10F948D
:10EBC000DCF1CC24DD2400E010E01EC0C8010F946D
:10EBD00077FEF82E882331F489E492EE60E00F94FA
:10EBE000C2F10BC08093C6008091C00086FFFCCFAD
:10EBF0008091C00080648093C000FE1419F00894D6
:10EC0000C11CD11C0F5F1F4FC80181519F41A0E063
:10EC1000B0E0ABBFFC01E790FAE2EF1621F022E092
:10EC20000030120799F60F94DCF10F94DCF182E6C4
:10EC300092EE60E00F94C2F1C60161E070E00F94C3
:10EC400034F20F94DCF10F94DCF110920202109276
:10EC50000302109204021092050278CE89E992EE26
:10EC600062E00F94F5F1279A2F9A16C02F9880E052
:10EC700090E0E0EDF7E03197F1F7019684369105E9
:10EC8000C1F72F9A80E090E0E0EDF7E03197F1F7DF
:10EC9000019684369105C1F78091C00087FFE6CFC9
:10ECA0008091C00087FFFCCF64C485EA92EE62E0E9
:10ECB0000F94F5F140910202509103026091040219
:10ECC0007091050281E020E10F9491F2809102029F
:10ECD00090910302A0910402B091050280509F4FD1
:10ECE000AF4FBF4F8093020290930302A0930402A0
:10ECF000B093050280509041A040B04008F426CE69
:10ED0000A4CF83EB92EE62E00F94F5F140910602FE
:10ED100050910702609108027091090280E020E1A1
:10ED20000F9491F28091060290910702A09108023F
:10ED3000B091090280509F4FAF4FBF4F80930602A2
:10ED400090930702A0930802B0930902FFCD80ECD4
:10ED500092EE62E00F94F5F183E792EE60E00F949B
:10ED6000F5F18FE792EE60E00F94F5F18BE892EE0B
:10ED700060E00F94F5F189E992EE60E00F94F5F10F
:10ED800085EA92EE60E00F94F5F183EB92EE60E09D
:10ED90000F94F5F180EC92EE60E00F94F5F187ECC2
:10EDA00092EE60E00F94F5F188ED92EE60E00F9442
:10EDB000F5F18FED92EE60E00F94F5F18AEE92EEB0
:10EDC00060E00F94F5F183E093EEBDCD87EC92EE19
:10EDD00062E00F94F5F181E40F947BF282E40F94EA
:10EDE0007BF283E40F947BF284E40F947BF285E45E
:10EDF0000F947BF286E40F947BF287E40F947BF20E
:10EE000088E40F947BF28AE40F947BF28BE40F94F6
:10EE10007BF28CE40F947BF299CD88ED92EE62E068
:10EE20000F94F5F1772473948824992409C48FED05
:10EE300092EE62E00F94F5F140910A0250910B02BC
:10EE400060910C0270910D0282E020E10F9491F22A
:10EE500080910A0290910B02A0910C02B0910D02D8
:10EE600080509F4FAF4FBF4F80930A0290930B0289
:10EE7000A0930C02B0930D0269CD8AEE92EE62E08F
:10EE80000F94F5F184EE90EE60E00F94F5F18FECC5
:10EE900091EE60E00F94F5F1662477244301CC5D98
:10EEA000DE4F19821882C452D140D401C301B695F5
:10EEB000A79597958795CA5DDE4F88839983AA8326
:10EEC000BB83C652D140CC5DDE4FA881B981C4520C
:10EED000D1401196CC5DDE4FB983A883C452D14096
:10EEE000CD0162E070E00F9434F2B0E2B093C6005E
:10EEF0008091C00086FFFCCF8091C0008064809329
:10EF0000C000EDE2E093C6008091C00086FFFCCF18
:10EF10008091C00080648093C000F0E2F093C6004E
:10EF20008091C00086FFFCCF8091C00080648093F8
:10EF3000C000CA5DDE4FE880F9800A811B81C6529D
:10EF4000D140BB27A12F902F8F2D0F940DF2CA5DBA
:10EF5000DE4F8881C652D1400F940DF2B0E2FB2EF5
:10EF6000F092C6008091C00086FFFCCF8091C00067
:10EF700080648093C0000DE30093C6008091C000C0
:10EF800086FFFCCF8091C00080648093C00010E2B7
:10EF90001093C6008091C00086FFFCCF8091C00016
:10EFA00080648093C0008BBEF3012791C65DDE4F65
:10EFB0002883CA52D140A22EBB24CC24DD2408943D
:10EFC000611C711C811C911C8BBEF3018791282E42
:10EFD0003324442455240894611C711C811C911C09
:10EFE0008BBEF3013791C55DDE4F3883CB52D140E4
:10EFF0000894611C711C811C911C8BBEF30147910C
:10F00000C45DDE4F4883CC52D140ADEFEA2EAFEF66
:10F01000FA2EAFEF0A2FAFEF1A2F6E0C7F1C801E57
:10F02000911E142D032DF22CEE24EA0CFB1C0C1D5A
:10F030001D1D0F940DF220E22093C6008091C000A8
:10F0400086FFFCCF8091C00080648093C000C65DC5
:10F05000DE4F8881CA52D1400F940DF230E23093D6
:10F06000C6008091C00086FFFCCF8091C000806404
:10F070008093C000C45DDE4F8881CC52D1400F9494
:10F080000DF240E24093C6008091C00086FFFCCFA5
:10F090008091C00080648093C000C55DDE4F888190
:10F0A000CB52D1400F940DF250E25093C6008091A4
:10F0B000C00086FFFCCF8091C00080648093C000B8
:10F0C0008FEFE8168FEFF80680E0080780E018075A
:10F0D00031F484E092EE60E00F94C2F1DFC0D80119
:10F0E000C7018070907CA070B0708050904CA040A0
:10F0F000B040D1F52FEF3FE340E050E0E222F322B1
:10F1000004231523CA5DDE4FA880B980CA80DB8046
:10F11000C652D140AE0CBF1CC01ED11EAA0CBB1CD7
:10F12000CC1CDD1C8EE092EE60E00F94C2F1BB2798
:10F13000A12F902F8F2D0F940DF28E2D0F940DF285
:10F1400030E23093C6008091C00086FFFCCF8091F2
:10F15000C00080648093C0004EE34093C60080915D
:10F16000C00086FFFCCF87C08EE09EEFA0E0B0E03D
:10F17000E822F9220A231B239CE0E91694E9F90608
:10F1800090E0090790E0190709F088C0C45DDE4FE0
:10F19000A881CC52D140EA2EFF2400E010E0102FCD
:10F1A0000F2DFE2CEE24C55DDE4FB881CB52D14031
:10F1B000EB0EF11C011D111DD601C501817090706F
:10F1C000A070B070DC0199278827E80EF91E0A1F8D
:10F1D0001B1F20EF30E040E050E0A222B322C42207
:10F1E000D52241E1AA0CBB1CCC1CDD1C4A95D1F7F1
:10F1F000EA0CFB1C0C1D1D1D81E090E0A0E0B0E0BE
:10F20000282239224A225B2235E1220C331C441C7D
:10F21000551C3A95D1F7E20CF31C041D151D57013E
:10F220006801AA0CBB1CCC1CDD1C85E192EE60E0E1
:10F230000F94C2F1C801AA27BB270F940DF2BB2778
:10F24000A12F902F8F2D0F940DF28E2D0F940DF274
:10F2500090E29093C6008091C00086FFFCCF809121
:10F26000C00080648093C000AEE3A093C60080918C
:10F27000C00086FFFCCF8091C00080648093C000F6
:10F28000C601AA27BB270F940DF2BB27AD2D9C2DDD
:10F290008B2D0F940DF28A2D0F940DF20F94DCF14B
:10F2A000CC5DDE4FE881F981C452D140F99709F471
:10F2B0004DCBF4E0EF2EF12C012D112D6E0C7F1CA7
:10F2C000801E911EF2CD83E093EE62E00F94F5F183
:10F2D0008AE192EE60E00F94C2F18091C00087FF56
:10F2E000FCCF1091C6001F751093C6008091C0001E
:10F2F00086FFFCCF8091C00080648093C0000F9493
:10F30000DCF1812F81548A3108F036C1163409F4BA
:10F3100095C0173490F4133409F44EC0143430F40B
:10F320001134F1F0123409F01DC130C0143409F465
:10F3300059C0153409F016C16BC01A3409F4C4C0A1
:10F340001B3438F4173409F48FC0183409F00AC19B
:10F35000A1C01B3409F4D2C01C3409F003C1E8C0B9
:10F360008FEF81B90DC082B1809582B980E090E0C5
:10F37000E0EDF7E03197F1F70196883C9105C1F790
:10F380008091C00087FFEFCF12B8EFC08FEF84B934
:10F390000DC085B1809585B980E090E0E0EDF7E0A3
:10F3A0003197F1F70196883C9105C1F78091C00033
:10F3B00087FFEFCF15B8D9C08FEF87B90DC088B1DF
:10F3C000809588B980E090E0E0EDF7E03197F1F7C3
:10F3D0000196883C9105C1F78091C00087FFEFCF6F
:10F3E00018B8C3C08FEF8AB90DC08BB180958BB9A7
:10F3F00080E090E0E0EDF7E03197F1F70196883C8E
:10F400009105C1F78091C00087FFEFCF1BB8ADC059
:10F410008FEF8DB90DC08EB180958EB980E090E0F0
:10F42000E0EDF7E03197F1F70196883C9105C1F7DF
:10F430008091C00087FFEFCF1EB897C08FEF80BBD1
:10F440000DC081B3809581BB80E090E0E0EDF7E0F6
:10F450003197F1F70196883C9105C1F78091C00082
:10F4600087FFEFCF11BA81C08FEF83BB0DC084B38C
:10F47000809584BB80E090E0E0EDF7E03197F1F714
:10F480000196883C9105C1F78091C00087FFEFCFBE
:10F4900014BA6BC08FEF809301010FC080910201FD
:10F4A00080958093020180E090E0E0EDF7E03197F5
:10F4B000F1F70196883C9105C1F78091C00087FF64
:10F4C000EDCF1092020151C08FEF809304010FC065
:10F4D0008091050180958093050180E090E0E0ED4A
:10F4E000F7E03197F1F70196883C9105C1F78091DB
:10F4F000C00087FFEDCF1092050137C08FEF8093DA
:10F5000007010FC08091080180958093080180E079
:10F5100090E0E0EDF7E03197F1F70196883C910536
:10F52000C1F78091C00087FFEDCF109208011DC088
:10F530008FEF80930A010FC080910B01809580931B
:10F540000B0180E090E0E0EDF7E03197F1F70196F4
:10F55000883C9105C1F78091C00087FFEDCF1092E4
:10F560000B0103C085E292EEEEC98091C00087FFD7
:10F57000FCCF8091C600EAC988E392EEE4C98CE131
:10F5800091EEE1C988249924933011F1943028F444
:10F59000913089F09230B8F408C0953061F195301F
:10F5A000F0F0963009F048C043C02B3109F042C951
:10F5B00091E06BE13FC96227C15DDE4F2883CF52E6
:10F5C000D14092E037C9B22FA0E0622793E032C960
:10F5D000822F90E0A82BB92B622794E02BC92E3004
:10F5E00009F039C3622795E0C05DDE4F19821882A9
:10F5F000C053D1401FC9E1E0F0E0EC0FFD1FC05D3A
:10F60000DE4F08811981C053D140E00FF11F2083E4
:10F610000F5F1F4FC05DDE4F19830883C053D14079
:10F6200062270A171B0709F005C9D80196E002C92D
:10F63000261709F010C303C0973009F0FBC87724E0
:10F640009981933109F412C19431C8F4963009F4C8
:10F65000D8C0973050F4923009F406C1933009F4C1
:10F660006DC0913009F059C253C0913109F477C08F
:10F67000923108F0BBC0903109F04FC2F5C098310B
:10F6800009F487C0993150F4953109F4EFC09531F0
:10F6900008F4C6C1963109F040C2C2C19A3109F4DA
:10F6A0006CC09A3108F491C09B3109F45BC09D3164
:10F6B00009F033C29D81903359F48F81882311F46E
:10F6C0009EE11CC0813011F091E018C098E916C08D
:10F6D000892F807591F0903539F4E0E0F0E089E011
:10F6E0008093570094910AC0983539F4E3E0F0E034
:10F6F00089E080935700949101C090E01A821B82A8
:10F700008D818C831D829E831F8227E030E009C299
:10F710001A8288E08B8381E48C8386E58D8382E581
:10F720008E8389E48F8383E5888780E589878FE5E9
:10F730008A8782E38B872BE030E0F3C18A818139AD
:10F7400041F0823941F0803911F48FE005C080E04A
:10F7500003C082E001C08AE01A828B8344C0772410
:10F76000739482C08D81882311F48EE12CC0813086
:10F7700011F081E028C088E926C01A82E1E0F0E0BB
:10F7800089E08093570084918B831C8224E030E0D1
:10F79000C8C18B81803589F48C81883039F4E2E0EE
:10F7A000F0E089E08093570084910DC0E0E0F0E044
:10F7B00089E080935700849106C0E3E0F0E089E09F
:10F7C0008093570084911A82DFCF8D81836C99E0FA
:10F7D000E1E0F0E0082E90935700E89507B600FCB2
:10F7E000FDCF1A821B8223E030E09BC180EC8A832C
:10F7F000CE5CDE4F188219821A821B82C253D1401E
:10F800008EC18A8190E0A0E0B0E0582F44273327D2
:10F8100022278B8190E0A0E0B0E0DC0199278827C7
:10F82000282B392B4A2B5B2B8D8190E0A0E0B0E098
:10F83000282B392B4A2B5B2B8C8190E0A0E0B0E089
:10F84000BA2FA92F982F8827282B392B4A2B5B2BCF
:10F85000220F331F441F551FC05EDE4F288339839C
:10F860004A835B83C052D1401A8259C13A81C95C34
:10F87000DE4F3883C753D140CA5CDE4F1882C6536F
:10F88000D1408B81C82EDD24CA5CDE4F488159816E
:10F89000C653D140C42AD52A933109F082C0CE5C28
:10F8A000DE4F88819981AA81BB81C253D1408050AB
:10F8B000904CA340B04030F583E0CE5CDE4FE88052
:10F8C000F9800A811B81C253D140F70100935B008C
:10F8D00080935700E89507B600FCFDCFCE5CDE4F65
:10F8E000088119812A813B81C253D14000501F4FAA
:10F8F0002F4F3F4FCE5CDE4F088319832A833B8313
:10F90000C253D140C05EDE4F488159816A817B81FC
:10F91000C052D140DE011B9631E08C9111962C91A2
:10F9200011971296C75CDE4F2883C953D140C85C3B
:10F93000DE4F1882C853D14090E0C85CDE4FE881AA
:10F94000F981C853D1408E2B9F2B0C01FA01609393
:10F950005B0030935700E89511244E5F5F4F6F4F67
:10F960007F4F0EEFE02E0FEFF02ECE0CDF1CC114F8
:10F97000D10499F685E0C05EDE4F088119812A81A5
:10F980003B81C052D140F80120935B008093570027
:10F99000E89507B600FCFDCF81E180935700E8951C
:10F9A00035C0C05EDE4F88819981AA81BB81C0527B
:10F9B000D140B695A795979587957C018601ABE0D8
:10F9C000AA2EB12CAC0EBD1E0BC0D5016D915D01F0
:10F9D000C7010F947FFE0894E11CF11C01501040F8
:10F9E0000115110591F7A60160E070E0440F551F65
:10F9F000661F771FC05EDE4FE880F9800A811B8199
:10FA0000C052D1404E0D5F1D601F711F1A82C05E33
:10FA1000DE4F488359836A837B83C052D1407FC0C5
:10FA2000FA80C55CDE4FF882CB53D140C65CDE4F16
:10FA30001882CA53D1408B81C82EDD24C65CDE4FAC
:10FA400008811981CA53D140C02AD12A1A828981DA
:10FA5000BE016D5F7F4F843121F59601C05EDE4FA0
:10FA6000E880F9800A811B81C052D1400BBFF701A9
:10FA700087919691DB018C9311969C936E5F7F4FDB
:10FA8000D801C7010296A11DB11DC05EDE4F88835B
:10FA90009983AA83BB83C052D14022503040F1F6F3
:10FAA00036C0C05EDE4F288139814A815B81C052F9
:10FAB000D1400894C108D108760100E010E0089414
:10FAC000C11CD11C0894E11CF11C011D111DE20E8A
:10FAD000F31E041F151F21BDBB27A52F942F832FB5
:10FAE00082BD2F5F3F4F4F4F5F4FF89A80B5DB01CC
:10FAF0008D93BD012E153F054007510761F7C05E8C
:10FB0000DE4F288339834A835B83C052D1409601FC
:10FB10002D5F3F4FFB01108204C080EC8A8322E0FE
:10FB200030E08BE18093C6008091C00086FFFCCF5F
:10FB30008091C00080648093C000C15DDE4FF88179
:10FB4000CF52D140F093C6008091C00086FFFCCF19
:10FB50008091C00080648093C000432F3093C60022
:10FB60008091C00086FFFCCF8091C00080648093AC
:10FB7000C000922F2093C6008091C00086FFFCCF6A
:10FB80008091C00080648093C0008EE08093C600A6
:10FB90008091C00086FFFCCF8091C000806480937C
:10FBA000C00065E1C15DDE4FE880CF52D1406E25D7
:10FBB00069276427FE01319610C090819093C6009A
:10FBC0008091C00086FFFCCF31968091C000806498
:10FBD0008093C0006927215030402115310569F715
:10FBE0006093C6008091C00086FFFCCF8091C0006A
:10FBF00080648093C00085B1805885B9772081F4F6
:10FC0000C15DDE4F0881CF52D1400F5FC15DDE4F35
:10FC10000883CF52D14090E0A0E0B0E00D941AF4F8
:10FC200027982F9880E090E020ED37E0F901319798
:10FC3000F1F7019684369105C9F700008091C00064
:10FC40008D7F8093C00081E180935700E895EE2777
:10FC5000FF270994FFCF90E00D941AF497FB092E2B
:10FC600007260AD077FD04D02ED006D000201AF443
:10FC7000709561957F4F0895F6F7909581959F4F08
:10FC80000895A1E21A2EAA1BBB1BFD010DC0AA1FDD
:10FC9000BB1FEE1FFF1FA217B307E407F50720F0F5
:10FCA000A21BB30BE40BF50B661F771F881F991F70
:10FCB0001A9469F760957095809590959B01AC01B9
:10FCC000BD01CF010895AA1BBB1B51E107C0AA1FAC
:10FCD000BB1FA617B70710F0A61BB70B881F991FED
:10FCE0005A95A9F780959095BC01CD010895F99991
:10FCF000FECF92BD81BDF89A992780B50895262F31
:10FD0000F999FECF1FBA92BD81BD20BD0FB6F89400
:0EFD1000FA9AF99A0FBE01960895F894FFCF63
:00000001FF
